S01A0000617474696E793233313320656E636F6465722E73726563A8
S11300001EC023C022C021C020C01FC01EC01DC0EE
S11300101CC01BC01AC019C018C017C016C015C018
S113002014C013C012C011C010C037C022C023C0F6
S113003024C025C026C027C028C029C02AC0112436
S11300401FBECFEDCDBF8ED007C1DACF81B38C6395
S113005081BB87B38FEF87BB88B318BA82B312BA58
S1130060089590E08A309105B0F4FC01EB5EFF4FF7
S1130070099486E008958BE508958FE4089586E653
S113008008958DE608958DE7089587E008958FE734
S113009008958FE6089580E008958FE308950F93FF
S11300A01F93CF93DF938C0168EE73E0AED0862F5D
S11300B0D8DF98B3892B88BB82B38C6182BB89EF6C
S11300C090E00197F1F700C0000088B318BA82B33A
S11300D012BAC80164E670E098D0CB01CAE0D0E05F
S11300E0BE0193D0BEDF98B3892B88BB82B38C62E8
S11300F082BB89EF90E00197F1F700C0000088B35C
S113010018BA82B312BAC801BE017FD0182FCB012E
S1130110BE017BD0A6DF98B3892B88BB82B38463EE
S113012082BB89EF90E00197F1F700C0000088B32B
S113013018BA82B312BA812F94DF98B3892B88BB83
S113014082B3886382BB89EF90E00197F1F700C026
S1130150000088B318BA82B312BADF91CF911F910D
S11301600F91089573DF81B381BB8AB38ABB80E0AA
S113017090E000E010E001C0CE01C0B3C370D0E055
S11301808130910509F11CF4892B91F033C0823040
S1130190910519F0039719F12DC0C330D10519F455
S11301A00F5F1F4F27C0209729F50150110922C066
S11301B0C230D10519F40F5F1F4F1CC0C130D105E7
S11301C0C9F40150110916C0209719F40F5F1F4F8D
S11301D011C0C330D10571F4015011090BC0C130F5
S11301E0D10519F40F5F1F4F05C0C230D10511F4BA
S11301F001501109112334F488279927801B910B8E
S11302004EDFBACFC8014BDFB7CF97FB072E16F4EA
S1130210009406D077FD08D00BD007FC05D03EF43F
S1130220909581959F4F0895709561957F4F08959E
S1130230AA1BBB1B51E107C0AA1FBB1FA617B70708
S113024010F0A61BB70B881F991F5A95A9F7809524
S10F02509095BC01CD010895F894FFCFF7
S9030000FC
