S01B00006C63645F686434343738305F706366383537342E7372656334
S113000014C019C018C017C016C015C015C013C03D
S113001012C011C010C00FC00EC00DC00CC00BC068
S11300200AC009C008C007C006C011241FBECFED16
S1130030CDBF01D13BC1E4CF1F920F920FB60F92F7
S113004011248F939F9398B381E0892788BB9F9154
S11300508F910F900FBE0F901F9018958CE089B967
S1130060599A8AB188618AB983B18E6283B9089535
S11300705D9BFECF8CB908955F9BFECF8CB1089534
S113008087B3806A87BBC79AC59A8FEF8FB98AE214
S11300908DB980EF8EB90895C79AB79BFECFC598E6
S11300A081EE94E00197F1F700C00000C79881EE5B
S11300B094E00197F1F700C00000C59A08959EB13D
S11300C0906F9EB98FB98FB1D3DF81EE94E0019721
S11300D0F1F700C00000689AB79BFECF81EE94E070
S11300E00197F1F700C00000689A769BEECF81EE8D
S11300F094E00197F1F700C000000895CF938EB10A
S11301008E6F8EB98FEF8FB9BD9881EE94E0019711
S1130110F1F700C00000689AB79BFECF81EE94E02F
S11301200197F1F700C00000689A769BEECFBD9A64
S1130130CFB18C2F9DDF8C2FCF91089580EF8EB996
S11301401FB8C59881EE94E00197F1F700C0000054
S11301508FEF8FB9C79AB79BFECF81EE94E00197DA
S1130160F1F700C00000C59A81EE94E00197F1F721
S113017000C000000895CF93C82F8460A0DFBEDFC5
S113018081EE94E00197F1F700C000008C2F8B7F83
S113019096DFB4DFCF91089580E091DFAFDF68DFB1
S11301A087E893E10197F1F700C0000080E3E3DF03
S11301B081EE94E00197F1F700C0000080E3DBDFFB
S11301C081EE94E00197F1F700C0000080E3D3DFF3
S11301D081EE94E00197F1F700C0000080E2CBDFEC
S11301E080E2C9DF80E8C7DF80E0C5DF80EFC3DFDE
S11301F080E0C1DF80E1BFDF80E0BDDF88E6BBDFF8
S11302000895CF93DF93D82FD07FC82FC295C07F96
S11302108DE08D0F54DF72DF89E08D0F50DF6EDFCC
S11302208DE08C0F4CDF6ADF89E08C0F48DF66DFDE
S1130230DF91CF91089510BE85E083BF89B78260B6
S113024089BFB89A0BDF2FE38DE093E02150804003
S11302509040E1F700C0000013DF1EDF8EE42FDFC3
S11302604DDF06DF8FEF2BDF49DF02DF83E700DF9F
S113027093DF88E4C6DF85E6C4DF8CE6C2DF8CE664
S1130280C0DF8FE6BEDF80E2BCDF87E7BADF8FE640
S1130290B8DF82E7B6DF8CE6B4DF84E6B2DF81E262
S11302A0B0DF4CDF7894E8DEE3DEFDCFF894FFCFD7
S9030000FC
