S01B00003334363141532034785F696E64696361746F722E73726563BF
S11300001EC023C022C021C020C01FC01EC01DC0EE
S11300101CC01BC01AC019C018C017C016C015C018
S113002014C013C012C011C010C03CC027C028C0E7
S113003029C02AC02BC02CC02DC02EC02FC0112413
S11300401FBECFEDCDBF93D0CEC0DACF81B38C63CA
S113005081BB87B38FEF87BB88B318BA82B312BA58
S11300600895C79A089588B388BB089590E08A30AC
S11300709105B0F4FC01EB5EFF4F099486E008950E
S11300808BE508958FE4089586E608958DE6089536
S11300908DE7089587E008958FE708958FE6089522
S11300A080E008958FE308950F931F93CF93DF9318
S11300B08C0168EE73E070D0862FD8DF98B3892B5B
S11300C088BB82B38C6182BB8FE193E00197F1F727
S11300D000C0000088B318BA82B312BAC80164E63B
S11300E070E05AD0CB01CAE0D0E0BE0155D0BEDFEB
S11300F098B3892B88BB82B38C6282BB8FE193E077
S11301000197F1F700C0000088B318BA82B312BA9D
S1130110C801BE0141D0182FCB01BE013DD0A6DFDE
S113012098B3892B88BB82B3846382BB8FE193E04D
S11301300197F1F700C0000088B318BA82B312BA6D
S1130140812F94DF98B3892B88BB82B3886382BBE9
S11301508FE193E00197F1F700C0000088B318BA6B
S113016082B312BADF91CF911F910F9108956EDF80
S113017008EE13E0C0E0D0E0CE0196DFCE01B80176
S11301800BD060FD02C06DDF01C06DDF2196C03170
S113019087E2D80789F7EECF97FB072E16F4009471
S11301A006D077FD08D00BD007FC05D03EF490951F
S11301B081959F4F0895709561957F4F0895AA1B6F
S11301C0BB1B51E107C0AA1FBB1FA617B70710F03E
S11301D0A61BB70B881F991F5A95A9F78095909570
S10D01E0BC01CD010895F894FFCF8F
S9030000FC
