:1000000028C040C03FC03EC03DC03CC03BC0C4C093
:1000100039C038C037C036C035C034C033C032C034
:1000200031C030C02FC02EC02DC054C03FC040C012
:1000300041C042C043C044C045C046C047C0FBC0E9
:10004000D9C0FCC0DAC0DCC0DEC0E0C0E2C0E4C0A1
:10005000E6C011241FBECFEDCDBF10E0A0E6B0E09A
:10006000EAE8F3E002C005900D92A036B107D9F797
:1000700020E0A0E6B0E001C01D92A636B207E1F78D
:1000800017D181C1BDCF81B38C6381BB87B38FEFA3
:1000900087BB88B318BA82B312BA089590E08A3049
:1000A0009105B0F4FC01EB5EFF4F099486E00895E2
:1000B0008BE508958FE4089586E608958DE608950A
:1000C0008DE7089587E008958FE708958FE60895F6
:1000D00080E008958FE308950F931F93CF93DF93EC
:1000E0008C0168EE73E028D1862FD8DF98B3892B76
:1000F00088BB82B38C6182BB86EA8A95F1F700C027
:1001000088B318BA82B312BAC80164E670E014D199
:10011000CB01CAE0D0E0BE010FD1C0DF98B3892B7C
:1001200088BB82B38C6282BB86EA8A95F1F700C0F5
:1001300088B318BA82B312BAC801BE01FDD0182F15
:10014000CB01BE01F9D0AADF98B3892B88BB82B35B
:10015000846382BB86EA8A95F1F700C088B318BA37
:1001600082B312BA812F9ADF98B3892B88BB82B3EE
:10017000886382BB86EA8A95F1F700C088B318BA13
:1001800082B312BADF91CF911F910F910895C79A50
:10019000089588B388BB08951F920F920FB60F92EF
:1001A00011242F934F935F936F937F938F939F931C
:1001B000AF93BF93EF93FF932CB180916000909128
:1001C0006100019741F41092650010926400109252
:1001D000610010926000822F90E0C0970A9710F59E
:1001E000822F90E0FC01F097EA30F105D8F4E15E4F
:1001F000FF4F099441E050E023C043E050E020C0AD
:1002000044E050E01DC045E050E01AC046E050E038
:1002100017C047E050E014C048E050E011C049E08A
:1002200050E00EC02A3001F581E090E0909361002B
:100230008093600019C040E050E002C042E050E00E
:100240008091640090916500BC01660F771F660F76
:10025000771F860F971F880F991F840F951F909304
:10026000650080936400DECFFF91EF91BF91AF9165
:100270009F918F917F916F915F914F912F910F90EF
:100280000FBE0F901F9018958CE089B9599A8AB1CA
:1002900088698AB91B9A0895FC019081992339F0E5
:1002A00031965D9BFECF9CB991919111FACF089543
:1002B000CF93DF931F92CDB7DD27E5DEE5DF78949E
:1002C00001E010E08091640090916500893691050D
:1002D00021F4109363000093620080916400909178
:1002E00065008A36910521F4109263001092620035
:1002F00080916400909165008C9779F487B389832D
:10030000CE010196C9DF87B390E09093650080939A
:1003100064001093630000936200809164009091E8
:100320006500DADE8091620090916300892B11F004
:100330002EDFC8CF2EDFC6CF97FB072E16F4009412
:1003400006D077FD08D00BD007FC05D03EF4909581
:1003500081959F4F0895709561957F4F0895AA1BD1
:10036000BB1B51E107C0AA1FBB1FA617B70710F0A0
:10037000A61BB70B881F991F5A95A9F780959095D2
:0A038000BC01CD010895F894FFCFF1
:00000001FF
